:020000040800F2
:1000000078060020950100089D0100089F01000866
:10001000A1010008A3010008A501000800000000DC
:10002000000000000000000000000000A701000820
:10003000A901000800000000AB010008AD010008A4
:10004000AF010008AF010008AF010008AF010008D0
:10005000AF010008AF010008AF010008410400082B
:10006000AF010008AF010008AF010008AF010008B0
:10007000AF010008AF010008AF010008AF010008A0
:10008000AF010008AF010008AF010008AF01000890
:10009000AF010008AF010008AF010008AF01000880
:1000A000AF010008AF010008AF010008AF01000870
:1000B000AF010008AF010008AF010008AF01000860
:1000C000AF010008AF010008AF010008AF01000850
:1000D000AF010008AF010008AF010008AF01000840
:1000E000AF010008AF010008AF01000800F002F8FE
:1000F00000F03EF80AA090E8000C82448344AAF184
:100100000107DA4501D100F033F8AFF2090EBAE881
:100110000F0013F0010F18BFFB1A43F0010318473B
:100120008C170000AC170000103A24BF78C878C1C3
:10013000FAD8520724BF30C830C144BF04680C60ED
:10014000704700000023002400250026103A28BF35
:1001500078C1FBD8520728BF30C148BF0B60704739
:100160001FB50FBC00F014F80FB41FBD10B510BDC3
:1001700000F033F81146FFF7F3FF00F0E1FF00F065
:1001800051F803B4FFF7F2FF03BC00F059F8000088
:1001900000F06DB80948804709480047FEE7FEE7D0
:1001A000FEE7FEE7FEE7FEE7FEE7FEE7FEE7FEE727
:1001B00004480549054A064B70470000D91000085D
:1001C000ED0000087800002078060020780200206A
:1001D00078020020704770477047754600F02CF891
:1001E000AE4605006946534620F00700854618B024
:1001F00020B5FFF7DDFFBDE820404FF000064FF0CF
:1002000000074FF000084FF0000BAC46ACE8C00907
:10021000ACE8C009ACE8C009ACE8C00921F00701AE
:100220008D46704710B50446AFF300802046BDE808
:100230001040FFF7A6BF00000048704710000020E4
:1002400001491820ABBEFEE7260002000246C91C89
:1002500021F00301D2E900031B1A8B4201D20020D6
:1002600070470144C91D21F00701116070472DE955
:10027000F34F83B000274FF48074BA4603A8214699
:100280008DF80070FFF7E2FF5FEA000801D100F08F
:1002900083F82146404600F070F8060009D04FF080
:1002A000010B4546C14616F8014B8FB15C2C16D0A8
:1002B0001CE008F108004146C8F800000020C8F81A
:1002C0000400D8F800402070012005B0BDE8F08F90
:1002D000222C01D0272C0FD12746BA462CE03078AB
:1002E000222807D05C2805D0272803D0BC4203D1A0
:1002F000002721E0761C04464CB12FB9202C06D0F3
:10030000A4F10900042802D905F8014BCBE74D45BB
:1003100002D1BAF1000F0FD052464946002005F82D
:10032000010B6846AFF300809DF8000070B14D46A8
:100330004FF0000A0BF1010B002CB4D14FEA8B01F6
:1003400003A8FFF783FF040002D004E0A946EFE70B
:10035000002000F021F800204246C4F8008005E0AB
:1003600012F8011B11B9401C44F82020AA42F7D30F
:10037000002144F820102146A7E71CB50446CDE92A
:10038000000169461520ABBE08B100201CBD204607
:100390001CBD70477047704710B500F009F8BDE804
:1003A0001040AFF30080002801D0FFF749BF70472D
:1003B00010B5012805D0002103A000F021F801208C
:1003C00010BD09A1F8E7000053494752544D454D6F
:1003D0003A204F7574206F662068656170206D65E6
:1003E0006D6F7279000000003A2048656170206DE1
:1003F000656D6F727920636F7272757074656400D9
:1004000070B505460C460A2000E06D1C00F011F89E
:1004100035B128780028F8D102E0641C00F009F812
:1004200014B120780028F8D1BDE870400A20AFF35D
:10043000008008B569468DF800000320ABBE08BDFA
:1004400080B596B000201590FFE7159849F63F411A
:10045000884205D8FFE7FFE7159801301590F4E7CB
:10046000002001210DF14F0200F00CFB9DF84F1010
:10047000012940F0E480FFE740F27000C2F2000082
:10048000007802286FD1FFE700200421129000F0CD
:10049000A5F90121022211900846114600F09EF9AB
:1004A00012991591FFE71598042839D8FFE7002025
:1004B000032110900F9100F0A7F901210E9008463A
:1004C0000F9900F0A1F910991491FFE7149844F6E0
:1004D0001F61884205D8FFE7FFE7149801301490A8
:1004E000F4E7002003210D900C9100F077F9012131
:1004F0000B9008460C9900F071F90D991491FFE7E3
:10050000149844F61F61884205D8FFE7FFE7149866
:1005100001301490F4E7FFE7159801301590C2E719
:10052000002002210A9000F06FF9012104220990B5
:100530000846114600F068F90A991591FFE71598E9
:1005400044F20701C0F20301884205D8FFE7FFE744
:10055000159801301590F2E740F27000C2F20000E9
:1005600000210170FFE740F27000C2F20000007845
:10057000012863D1FFE700201590FFE715980428B4
:1005800039D8FFE7002003210890079100F03CF9DB
:10059000012106900846079900F036F90899149150
:1005A000FFE7149844F61F61884205D8FFE7FFE78C
:1005B000149801301490F4E7002003210590049171
:1005C00000F00CF9012103900846049900F006F9A7
:1005D00005991491FFE7149844F61F61884205D8E5
:1005E000FFE7FFE7149801301490F4E7FFE7159850
:1005F00001301590C2E700200221029000F004F9BA
:100600000121042201900846114600F0FDF80299EC
:100610001591FFE7159844F20701C0F203018842E3
:1006200005D8FFE7FFE7159801301590F2E740F293
:100630007000C2F2000000210170FFE7FFE716B072
:1006400080BD000080B582B000208DF80700FFE774
:100650009DF807000F2800F3A980FFE79DF8070029
:1006600040F20001C2F20001085C4009C007002806
:1006700000F08780FFE79DF80700012101FA00F0F4
:1006800040F20041C4F201010A68104308609DF87D
:10069000070040F20001C2F20001085CC0F3C10093
:1006A00001460028009108D0FFE7009801281DD0DE
:1006B000FFE70098022832D049E09DF807000121A9
:1006C00001FA00F040F20842C4F201021368184334
:1006D00010609DF8070001FA00F040F20C41C4F2EE
:1006E00001010A6822EA0000086030E09DF8070076
:1006F000012101FA00F040F20842C4F2010213683D
:1007000023EA000010609DF8070001FA00F040F2B3
:100710000C41C4F201010A681043086017E09DF81B
:100720000700012101FA00F040F20842C4F2010280
:100730001368184310609DF8070001FA00F040F2BA
:100740000C41C4F201010A6810430860FFE79DF8FC
:10075000070040F20001C2F20001085C00F007004F
:10076000013000280CD0FFE79DF8070040F200019F
:10077000C2F20001095C01F0070100F05BF8FFE73D
:100780000DE09DF80700012101FA00F040F2004160
:10079000C4F201010A6822EA00000860FFE7FFE7EF
:1007A0009DF8070001308DF8070051E702B080BDC9
:1007B00080B584B00A4603468DF80F008DF80E1000
:1007C0009DF80F009DF80E104FF0020C0292624649
:1007D000019300F0B3F904B080BD000080B584B08F
:1007E0000A4603468DF80F008DF80E109DF80F0095
:1007F0009DF80E104FF0000C02926246019300F03B
:1008000095FA04B080BD000080B584B00A46034666
:100810008DF80F008DF80E109DF80F009DF80E104A
:100820004FF0010C02926246019300F07FFA04B08F
:1008300080BD000082B00A4603468DF806008DF8A0
:10084000051000208DF804009DF806000F2805DC37
:10085000FFE79DF80500032805DBFFE79DF804008E
:100860008DF8070030E09DF8060080088DF8030041
:100870009DF8060000F003008DF806009DF80600C4
:1008800080000F2101FA00F09DF803100822C4F245
:10089000010252F8213023EA000042F821009DF8BD
:1008A00005009DF80610890088409DF8031052F855
:1008B0002130184342F8210001208DF804009DF8F2
:1008C00004008DF80700FFE79DF8070002B07047AD
:1008D00081B001468DF8030000208DF802009DF8DC
:1008E00003001F280DDCFFE79DF80300012101FA3A
:1008F00000F04EF20012CEF2000210608DF80210ED
:100900002BE09DF803003F280EDCFFE79DF8030075
:100910002038012101FA00F04EF20412CEF200025A
:1009200010608DF8021017E09DF803005F280EDCC0
:10093000FFE79DF803004038012101FA00F04EF274
:100940000812CEF2000210608DF8021003E00020C1
:100950008DF80200FFE7FFE7FFE79DF8020001B016
:100960007047000080B588B00146079000208DF8E0
:100970001B00079A42F20043C4F6F423019010468C
:100980000091194600F0C6FE00F098FE44F2000304
:10099000C4F28F03019A00F0B5FC00F00DFE059043
:1009A000059840F20111A0FB0123C01A03EB50008F
:1009B000C00D04900598A0FB0113A0EB030C03EB02
:1009C0005C03DB0DA3EB03631844039001980290D2
:1009D000FFE702980499884229D2FFE74EF21400FB
:1009E000CEF200006FF07F4101604EF21000CEF2B7
:1009F0000000016841F001010160FFE74EF21200C2
:100A0000CEF200000078C007002801D1FFE7F5E72B
:100A10004EF21000CEF20000016821F001010160E9
:100A200000F0ACFAFFE7029801300290D1E703989A
:100A30004EF21401CEF2000108604EF21000CEF228
:100A40000000016841F001010160FFE74EF2120071
:100A5000CEF200000078C007002801D1FFE7F5E7DB
:100A60004EF21000CEF20000016821F00101016099
:100A700000F084FA01208DF81B009DF81B0008B0DF
:100A800080BD000084B00B4684468DF80F008DF8C1
:100A90000E10029200208DF807000298002844D022
:100AA000FFE79DF80F0001460028009108D0FFE7FE
:100AB0000098012814D0FFE70098022820D02FE0EA
:100AC00040F60800C4F2010000689DF80E10C8400E
:100AD00000F001000299087001208DF8070023E062
:100AE00040F60840C4F2010000689DF80E10C840AE
:100AF00000F001000299087001208DF8070013E052
:100B000041F20800C4F2010000689DF80E10C840D0
:100B100000F001000299087001208DF8070003E041
:100B200000208DF80700FFE703E000208DF80700A4
:100B3000FFE79DF8070004B07047000080B582B061
:100B400013468C4686468DF807008DF806108DF802
:100B5000052000208DF804009DF8070001460028BC
:100B6000009109D0FFE7009801284BD0FFE70098DB
:100B7000022800F08D80D1E09DF8060007281BDCDC
:100B8000FFE79DF8060080000F2101FA00F040F613
:100B90000001C4F201010A6822EA000008609DF821
:100BA00005009DF80620920090400A6810430860F6
:100BB00001208DF8040024E09DF806000F281BDCBE
:100BC000FFE79DF8060080000F2101FA00F040F6D3
:100BD0000401C4F201010A6822EA000008609DF8DD
:100BE00005009DF80620920090400A6810430860B6
:100BF00001208DF8040003E000208DF80400FFE7D9
:100C0000FFE78FE09DF8060007281BDCFFE79DF853
:100C1000060080000F2101FA00F040F60041C4F206
:100C200001010A6822EA000008609DF805009DF8AD
:100C30000620920090400A681043086001208DF859
:100C4000040024E09DF806000F281BDCFFE79DF858
:100C5000060080000F2101FA00F040F60441C4F2C2
:100C600001010A6822EA000008609DF805009DF86D
:100C70000620920090400A681043086001208DF819
:100C8000040003E000208DF80400FFE7FFE749E0DF
:100C90009DF8060007281BDCFFE79DF80600800092
:100CA0000F2101FA00F041F20001C4F201010A68CB
:100CB00022EA000008609DF805009DF806209200D9
:100CC00090400A681043086001208DF8040024E079
:100CD0009DF806000F281BDCFFE79DF8060080004A
:100CE0000F2101FA00F041F20401C4F201010A6887
:100CF00022EA000008609DF805009DF80620920099
:100D000090400A681043086001208DF8040003E059
:100D100000208DF80400FFE7FFE703E000208DF8D6
:100D20000400FFE79DF8040002B080BD80B582B0EA
:100D300013468C4686468DF807008DF806108DF810
:100D4000052000208DF804009DF8070001460028CA
:100D5000009108D0FFE70098012833D0FFE7009802
:100D600002285ED08CE09DF8050001280FD1FFE736
:100D70009DF80600012101FA00F040F60C02C4F2D1
:100D800001021368184310608DF8041019E09DF8F3
:100D90000500002810D1FFE79DF80600012101FAA7
:100DA00000F040F60C02C4F20102136823EA0000CE
:100DB00010608DF8041003E000208DF80400FFE7B8
:100DC000FFE761E09DF8050001280FD1FFE79DF8DE
:100DD0000600012101FA00F040F60C42C4F20102C3
:100DE0001368184310608DF8041019E09DF8050091
:100DF000002810D1FFE79DF80600012101FA00F05C
:100E000040F60C42C4F20102136823EA00001060AD
:100E10008DF8041003E000208DF80400FFE7FFE7E1
:100E200032E09DF8050001280FD1FFE79DF806008C
:100E3000012101FA00F041F20C02C4F20102136830
:100E4000184310608DF8041019E09DF80500002883
:100E500010D1FFE79DF80600012101FA00F041F2F0
:100E60000C02C4F20102136823EA000010608DF83E
:100E7000041003E000208DF80400FFE7FFE703E023
:100E800000208DF80400FFE79DF8040002B080BD4B
:100E900082B00A4603468DF807008DF80610002040
:100EA0008DF805009DF8060001460028009108D045
:100EB000FFE70098012813D0FFE7009802281ED012
:100EC0002CE09DF80700012101FA00F041F2140224
:100ED000C4F202021368184310608DF8051021E077
:100EE0009DF80700012101FA00F041F21C02C4F252
:100EF00002021368184310608DF8051012E09DF887
:100F00000700012101FA00F041F21802C4F20202C6
:100F10001368184310608DF8051003E000208DF869
:100F20000500FFE79DF8050002B0704781B0002082
:100F30008DF8030041F20000C4F20200016821F4C0
:100F400080210160016841F480310160FFE741F2D6
:100F50000000C4F202000068400CC007002801D164
:100F6000FFE7F4E741F20400C4F20200012101604E
:100F70008DF803109DF8030001B070474EF2100089
:100F8000CEF20000016821F0010101604EF218016B
:100F9000CEF2000100220A604EF21401CEF20001EE
:100FA0000A60016821F480310160704780B500F06B
:100FB00001F880BD83B000200290019041F2000052
:100FC000C4F20200016841F480310160FFE741F2A0
:100FD0000000C4F20200006800F4003001900298A2
:100FE00001300290FFE7019800210028009107D10D
:100FF000FFE70298B0F5A06018BF01200090FFE75E
:101000000098C0070028E2D1FFE741F20000C4F2D7
:10101000020000688003002803D5FFE7012001904B
:1010200002E000200190FFE70198012850D1FFE77E
:1010300042F20000C4F20200016841F010010160B8
:10104000016821F007010160016841F002010160BF
:1010500041F20400C4F2020001680160016801600D
:10106000016841F480610160016821F47C11016034
:10107000016841F4E811016041F20000C4F202008D
:10108000016841F080710160FFE741F20000C4F2A5
:10109000020000688001002801D4FFE7F5E741F273
:1010A0000400C4F20200016821F00301016001683C
:1010B00041F002010160FFE741F20400C4F20200C6
:1010C000006800F00C00082801D0FFE7F4E700E01A
:1010D000FFE703B07047000080B541F20000C4F2A2
:1010E0000200016841F00101016041F20401C4F213
:1010F00002010A680023CFF6FF031A400A60026863
:101100004FF6FF73CFF6F6631A400260026822F4CE
:1011100080220260086820F4FE00086041F20800A6
:10112000C4F202004FF41F010160FFF73FFF4EF6CB
:101130000850CEF200004FF00061016080BD000059
:1011400080B5A8B0002027902690FFF7EFFE02217F
:10115000259008462491FFF79BFE03212390084623
:10116000249A22911146FFF793FE01210822269B23
:10117000219018462091FFF7E1FC26991F90084620
:101180002499FFF715FB26991E9008462299FFF730
:101190000FFB0421269A1D9010461C91FFF708FBB7
:1011A00020991B9008462499FFF702FB20991A907A
:1011B00008462299FFF7FCFA2099199008461C99D5
:1011C000FFF7F6FA072118900846FFF781FB179002
:1011D000FFF738FA26982099209AFFF7A7FDFFE736
:1011E00040F27000C2F200000078012827D1FFE72A
:1011F0000020032116901591FFF7F0FA01211490B9
:101200000846159A13911146FFF7E8FA40F270016B
:10121000C2F20001169A0A70022112901046FFF7DE
:10122000F3FA0421139A11901046FFF7EDFA00210A
:10123000C4F2FA3110900846FFF794FBFFE740F242
:101240007000C2F200000078022828D1FFE70020D9
:1012500004210F90FFF7C2FA012102220E900846E6
:101260000D911146FFF7BAFA40F27001C2F2000187
:101270000D9A0A7003210F9B0C9018460B91FFF7F3
:10128000C3FA0D990A9008460B99FFF7BDFA0021A1
:10129000C4F2FA3109900846FFF764FBFFE740F219
:1012A0007000C2F200000078002829D1FFE700207A
:1012B000022108900791FFF791FA0121042206907C
:1012C0000846059111460492FFF788FA40F2700132
:1012D000C2F20001079A0A7008990390084604991F
:1012E000FFF792FA0599029008460799FFF78CFAE2
:1012F0000021C4F2FA3101900846FFF733FBFFE703
:101300006EE700002DE9C04130B4DFF8A4C23CEA2A
:10131000111418BF3CEA131400F0ED801CEA1114FC
:1013200081EA030544EAD57418BF1CEA131500F0DE
:10133000C880A4EB050404F17F7404F500344FF079
:10134000004545EAC12145EAC32341EA505143EA39
:1013500052534FEAC0204FEAC222994208BF90423E
:1013600000F09D804FEA13650FF24416765D4FEA58
:10137000134506FB05F7C7F1807706FB07F74FEA31
:10138000D737A7FB03687642A7FB06CEC8F580389F
:1013900038BFA8F1010807FB08E6A6FB028C4FF056
:1013A000000EE6FB03CEDCF1000CCEF1004E38BFA0
:1013B000AEF1010EA6FB0C584FF00007E6FB0E87BE
:1013C000A1FB08C6A0FB07CE16EB0E064FF00005EA
:1013D00045F10005E1FB076515F1E04E7EBFA4F580
:1013E00080345FEA46066D4116F1800745F100053D
:1013F0004FEA172747EA05674FEA15254FEA0666C1
:10140000A6F1DE46B6F1805F20D9384605EBC471FF
:1014100024F0010C01EB0C11BCF1FE6F02D8F0BC02
:10142000BDE8008124425CBF01F5801E9EEAC47FB6
:1014300002D4F0BCBDE80081244200F13980A1F162
:10144000C041F0BCBDE8004100F031B94FEAD02006
:1014500040EA41504FEAD1214FEAD22242EA4352B8
:101460004FEAD323A7FB028607FB036605FB026650
:101470001EEA0E0F58BFA6EB0056B6EB00564FEA19
:10148000520E4EEAC37E18EB0E0E56EB530EBCD531
:1014900018EB02085E417F1C55F10005B5E74FF4DB
:1014A00080154FF000074FF000064FF00008ACE742
:1014B00001F1C04101F000414FF00000F0BCBDE877
:1014C00000810CEA131511EA0C1F00D00CE013EA9E
:1014D0000C1F00F026804FF0000081EA030101F0AC
:1014E0000041F0BCBDE80081F0BCBDE8004181EAEC
:1014F000030100F0DCB8F0BCBDE8004170B500F0BD
:1015000088F800BF097EFC3E00F007B84FF00000ED
:1015100081EA030101F00041704781EA030100F014
:10152000C6B8F0BCBDE8004122494FF0000070474A
:10153000FFFDFBF9F7F5F4F2F0EEEDEBE9E8E6E498
:10154000E3E1E0DEDDDBDAD8D7D5D4D3D1D0CFCD1F
:10155000CCCBCAC8C7C6C5C4C2C1C0BFBEBDBCBB58
:10156000BAB9B8B7B6B5B4B3B2B1B0AFAEADACAB53
:10157000AAA9A8A8A7A6A5A4A3A3A2A1A09F9F9E2D
:101580009D9C9C9B9A9999989797969595949393DF
:10159000929191908F8F8E8E8D8C8C8B8B8A898976
:1015A00088888787868585848483838282818180F9
:1015B0000000FF070000F87F4FEA1153A3F5806396
:1015C000D3F11E03A8BFD3F1200C08DB4FF000427B
:1015D00042EAC12252EA505232FA03F070470942FD
:1015E0000BD4102BC4BF0020704703F5787CBCF1EE
:1015F000FF3F05D04FF0FF3070474FF000007047BD
:1016000070B500F006F800BF4992248000207047B2
:10161000F0E70EF1020E2EF0030E5EF8046B364278
:1016200005D4012A43EB030515F5001F12D8012844
:1016300041EB010C1CF5001F0CD80ED14FEAD17CF8
:101640000CEB4C0C0CF1020C15F5001F08BF4CEB19
:10165000D37C04E04FF0080C01E04FEAD37C0CEBA4
:101660004C0526FA05F606F00706B6F1040C06D27C
:101670000EEB860CBDE870404CF0010C6047DFE8D3
:101680000CF0090B02024FF00041A1F500214FF0D0
:10169000000070BD19461046012851EB010418BF27
:1016A000D4F5001484BF002001F0004170BD08088B
:1016B000A0F500114FEA31017047000043004FEAE6
:1016C000D30C4FEA3C0C43401FBF40070CF1605164
:1016D00013F0FE4F70471CF0006F03D10CF0004177
:1016E000002070470CF0004343EA507040EACC0001
:1016F00010B500F090F800BF000000924FEA000122
:10170000FFF7D5BF4FF00041A1F500214FF00000D9
:10171000704700004FF47F0C1CEAD0121EBF1CEA79
:10172000D11392EA0C0F93EA0C0F00F0478090EA75
:10173000010F48BF42F480724FF0004C4CEA002089
:101740004CEA012102EB0302A0FB0113A2F5000207
:10175000002918BF43F001035B0028BF4FEA3303A1
:1017600042EB22425FEA132C4CEBC2502EBFBCEB83
:10177000436FB2F57C0F70474FEA036CBCF1004F2A
:1017800008BF20F00100B2F57C0F38BF70470BD5C1
:1017900082F0FF0212F5803FC8BF704700F1C040E1
:1017A000D8BF00F00040704700F5000C5FEA4C0C19
:1017B00048BF7047B0F1C04000F073B80CEAD113D5
:1017C00090EA010F48BF42F48072624538BF63451A
:1017D00004D280EA010000F00040704710B500F02C
:1017E0001AF800BF8900013E00F007B800F009B800
:1017F0005FEA410C5FEA1C6C08D080EA010000F04F
:1018000050B85FEA400C5FEA1C6CF6D14FF0004024
:10181000A0F5800070470EF1020E2EF0030E5EF868
:10182000044B244204D44FEA4102B2F17F4F11D855
:101830004FEA4003B3F17F4F0CD80ED14FEAD07C72
:101840000CEB4C0C0CF1020CB2F17F4F08BF4CEBCF
:10185000D17C04E04FF0080C01E04FEAD17C0CEBA6
:101860004C0324FA03F404F00704B4F1040C06D288
:101870000EEB840CBDE810404CF0010C6047DFE833
:101880000CF0070802024FF00040A0F5800010BDE8
:101890000846420018BFD2F1807288BF00F00040B5
:1018A00010BDFF2141EAD050C0057047CC18000898
:1018B000000000201000000028010008DC180008CB
:1018C00010000020680600004401000817281017C7
:0C18D000171717171717171717171717F8
:040000050800019559
:00000001FF
